:100000008316133085000030860083128601850137
:1000100096018C019201930194018D018E018F0153
:100020009001910193206F2090200C08AA3A031DA3
:10003000122893206F2090200C08003A031DE4281A
:10004000F4308C00CB209320E020B0206F20902053
:100050000C08FA3A031DE428111046212D21FF3027
:100060009800FF3099008617980B3428990B342894
:100070008D018E018F019001FF30980010309900A2
:100080009320662090200C088D00AA3A0319A52918
:10009000861793206F2090200C088E00AA3A03192F
:1000A000A52993206F2090200C088F00AA3A0319ED
:1000B000A529111C632893206F2090200C08900024
:1000C000AA3A0319A529F72086133828051C712898
:1000D000980B6628990B662886010511851105186D
:1000E0006F28051C71288620862086208620862081
:1000F00086208620862005187B28851884281210E3
:10010000AB20051C812808001214802805188628B9
:1001100005089400940C940C8C0C051C8D28080088
:100120009720E02008008316051483120800831628
:1001300005108312051008008316851083128510A0
:10014000080083168514831208008C0C0318AA2853
:100150009C20AB28A120051CAB280518AD28080061
:100160009020E2209C20E22093200518B528A520AD
:10017000A520A520A520A520A520A520A520C82034
:10018000AB20A120AB20051CC328851CC528080076
:100190001218A1289C2893010C18930A8C18930A12
:1001A0000C19930A8C19930A0C1A930A8C1A930A45
:1001B0000C1B930A8C1B930A1210131C12140800B8
:1001C000950BE02800000800FF309800FF309900F0
:1001D0008617980BE828990BE828FF309800FF3025
:1001E00099008613980BF128990BF128E4289601C1
:1001F0000D1896168D1816170D1916160D1A0529B5
:100200000E08FF39031D96150C290E089700970953
:10021000170AFF39031D16158D1A13290F08FF3908
:10022000031D16141A290F0897009709170AFF399A
:10023000031D9614111C2A29901923291008073927
:10024000031D05152A29100897009709170A073971
:10025000031D8515160886000800E8308C00CB20A9
:100260009320E020B0206F2090200C08FA3A031D64
:10027000E42801308C00CB209320E020B0206F20B8
:1002800090200C08FA3A031DE4280800051E080017
:10029000F3308C00CB209320E020B0206F20902002
:1002A0000C08FA3A031DE428C8308C00CB209320B8
:1002B000E020B0206F2090200C08FA3A031DE428BB
:1002C000F3308C00CB209320E020B0206F209020D2
:1002D0000C08FA3A031DE42864308C00CB209320EC
:1002E000E020B0206F2090200C08FA3A031DE4288B
:1002F000F3308C00CB209320E020B0206F209020A2
:100300000C08FA3A031DE42850308C00CB209320CF
:10031000E020B0206F2090200C08FA3A031DE4285A
:10032000F2308C00CB209320E020B0206F20902072
:100330000C08FA3A031DE42893206F2090200C0843
:10034000033A031D080011140800FF308C00CB2075
:100350009320E020B0206F2090200C08FA3A031D73
:04036000E428122853
:02400E00F13F80
:00000001FF
